:100000000C942A000C9434000C9434000C943400AA
:100010000C9434000C9434000C9434000C94340090
:100020000C9434000C9434000C9434000C94340080
:100030000C9434000C9434000C9434000C94340070
:100040000C9434000C9434000C9434000C94340060
:100050000C94340011241FBECFE5D4E0DEBFCDBF29
:100060000E9436000C947E000C94000011BA8FEFB1
:1000700087BB88BB4AE029E130E066E059E075E0E3
:1000800048BB80E593ECF9013197F1F70197D9F777
:1000900068BB48BB80E593ECF9013197F1F7019714
:1000A000D9F758BB48BB80E593ECF9013197F1F7DC
:1000B0000197D9F768BB48BB80E593ECF90131970C
:1000C000F1F70197D9F758BB48BB80E593ECF901EC
:1000D0003197F1F70197D9F778BB88E893E1F901F7
:1000E0003197F1F70197D9F768BB58BB80E593ECDE
:1000F000F9013197F1F70197D9F7C2CFF894FFCF03
:00000001FF
